:100000000C942A000C94D4000C943C000C943C00FA
:100010000C943C000C943C000C943C000C943C0070
:100020000C943C000C943C000C943C000C94A002FA
:100030000C943C000C943C000C943C000C943C0050
:100040000C943C000C943C000C943C000C943C0040
:100050000C943C0011241FBECFE5D8E0DEBFCDBF1D
:1000600020E0A0E6B0E001C01D92A536B207E1F79E
:100070000E943A010C9403030C94000060E081E4B8
:100080000E942B0162E081E40E942B0161E081E487
:100090000E942B0160E082E40E942B0162E082E476
:1000A0000E942B0161E082E40E942B0162E084E463
:1000B0000E94D0000E9495020E946A020E9479026A
:1000C0000E946E020E94750287E391E00E947D0209
:1000D00008958091610081111BC060E081E40E945D
:1000E0002F0161E081E40E94330162E081E40E941B
:1000F000330180916000811104C062E082E40E94BB
:100100002F010E948E02809161008F5F80936100B9
:1001100080916100813079F40E948E0280916000AC
:10012000813021F462E082E40E9433018091610019
:100130008F5F8093610080916100823011F560E0F3
:1001400081E40E94330161E081E40E94330162E0B6
:1001500081E40E942F0180916000811105C062E05E
:1001600082E40E942F0106C0813021F460E082E425
:100170000E942F010E948E02809161008F5F809308
:10018000610080916100833051F40E948E0260E032
:1001900082E40E9433011092610010926000089581
:1001A00040E00E943F0108951F920F920FB60F92F8
:1001B00011242F933F934F935F936F937F938F936C
:1001C0009F93AF93BF93EF93FF9380916000811152
:1001D0002EC080916100811104C084E1809362008F
:1001E00026C0813019F40E949A0221C0823079F42D
:1001F0000E949A0260E070E082E490E00E942F0189
:1002000062E070E082E490E00E94330110C083302D
:1002100071F462E070E082E490E00E94330160E0FB
:1002200070E082E490E00E942F010E949A0281E037
:1002300080936000FF91EF91BF91AF919F918F915B
:100240007F916F915F914F913F912F910F900FBED2
:100250000F901F90189541E00E943F01089541E0E2
:100260000E94B901089540E00E94B90108950E94DA
:10027000330208950E943E000E946900FDCF82343F
:1002800031F118F4813439F008958334E1F1843484
:1002900009F454C0089541110CC02AB381E090E0E4
:1002A00002C0880F991F6A95E2F7809582238ABB66
:1002B0000895413009F05CC02AB381E090E002C0AB
:1002C000880F991F6A95E2F7822B8ABB0895411126
:1002D0000CC027B381E090E002C0880F991F6A9597
:1002E000E2F78095822387BB0895413009F040C032
:1002F00027B381E090E002C0880F991F6A95E2F76A
:10030000822B87BB089541110CC024B381E090E09B
:1003100002C0880F991F6A95E2F78095822384BBFB
:100320000895413029F524B381E090E002C0880FA0
:10033000991F6A95E2F7822B84BB089541110CC086
:1003400022B781E090E002C0880F991F6A95E2F71A
:100350008095822382BF0895413051F422B781E015
:1003600090E002C0880F991F6A95E2F7822B82BF46
:100370000895823431F118F4813439F008958334CA
:10038000E1F1843409F454C0089541110CC02BB339
:1003900081E090E002C0880F991F6A95E2F780958E
:1003A00082238BBB0895413009F05CC02BB381E000
:1003B00090E002C0880F991F6A95E2F7822B8BBBF1
:1003C000089541110CC028B381E090E002C0880F6D
:1003D000991F6A95E2F78095822388BB0895413082
:1003E00009F040C028B381E090E002C0880F991F57
:1003F0006A95E2F7822B88BB089541110CC025B3A2
:1004000081E090E002C0880F991F6A95E2F780951D
:10041000822385BB0895413029F525B381E090E022
:1004200002C0880F991F6A95E2F7822B85BB089559
:1004300041110CC022B381E090E002C0880F991FE7
:100440006A95E2F78095822382BB0895413051F48A
:1004500022B381E090E002C0880F991F6A95E2F70D
:10046000822B82BB08958234A1F018F4813431F0DC
:1004700008958334C9F0843411F108952BB381E0D9
:1004800090E002C0880F991F6A95E2F782278BBB24
:10049000089528B381E090E002C0880F991F6A9503
:1004A000E2F7822788BB089525B381E090E002C07F
:1004B000880F991F6A95E2F7822785BB089522B3BA
:1004C00081E090E002C0880F991F6A95E2F78227C9
:1004D00082BB08958FB780688FBF089585B781600C
:1004E00085BF85B7826085BF08958BB780648BBF59
:1004F000089589B7816089BF0895909364008093BF
:100500006300089583B7856083BF80916200843162
:10051000E0F3089513BE1092620008950E948202D3
:100520000E948A02089582BF089513BE8BE00E9444
:10053000930208958BE00E94930210926200089546
:100540001F920F920FB60F9211242F933F934F9348
:100550005F936F937F938F939F93AF93BF93EF932B
:10056000FF938BE00E949302809162008F5F8093E3
:10057000620080916100813099F490916000913027
:1005800079F4E0916300F091640061E081E4099501
:10059000E0916300F091640061E082E4099522C07B
:1005A000813011F0833099F490916000913079F4AA
:1005B000E0916300F091640061E081E40995E091CD
:1005C0006300F091640061E082E409950BC0813022
:1005D00011F0833039F4E0916300F091640061E040
:1005E00081E40995FF91EF91BF91AF919F918F9118
:1005F0007F916F915F914F913F912F910F900FBE1F
:0A0600000F901F901895F894FFCF9B
:00000001FF
